S00A00005A322E737265638E
S11300000C942A000C9434000C9434000C943400A6
S11300100C9434000C9434000C9434000C9434008C
S11300200C9434000C9434000C9434000C9434007C
S11300300C9434000C9434000C9434000C9434006C
S11300400C9434000C9434000C9434000C9434005C
S11300500C94340011241FBECFE5D8E0DEBFCDBF21
S11300600E9436000C944A000C9400008D9A8FB5BF
S113007082688FBD8EB588618EBD86EC9CE597BD88
S113008086BD83E69EE29BBD8ABD8EB583608EBD30
S10B00900000FECFF894FFCF3D
S9030000FC
