:100000000C942A000C943C000C943C000C943C0092
:100010000C943C000C943C000C943C000C943C0070
:100020000C943C000C943C000C943E000C943C005E
:100030000C943C000C943C000C943C000C943C0050
:100040000C943C000C943C000C943C000C943C0040
:100050000C943C0011241FBECFE5D8E0DEBFCDBF1D
:1000600020E0A0E6B0E001C01D92A236B207E1F7A1
:100070000E9493000C94B4000C9400001F920F9205
:100080000FB60F9211242F933F934F935F938F934B
:100090009F93409160005091610082B34C5F5F4F2D
:1000A00021E030E002C0220F331F4A95E2F791E0D1
:1000B0002F3F3F4F09F490E08F70892B82BB80B3B4
:1000C0008F708F3091F02BB34091600050916100A0
:1000D0004C5F5F4F81E090E002C0880F991F4A9506
:1000E000E2F7922F907F892B8BBB809160009091DB
:1000F00061000196909361008093600080916000A0
:1001000090916100049724F01092610010926000B9
:100110009F918F915F914F913F912F910F900FBEC3
:100120000F901F9018958FEF8ABB84BB91B3906F8F
:1001300091BB92B39F6092BB85BB83EC8CBF89B7A8
:10014000826089BF83B7856483BF78942FEB84ED89
:1001500091E0215080409040E1F700C0000085B35D
:0C016000809585BB0000F2CFF894FFCF23
:00000001FF
