:100000000C942A000C9449000C9447000C9447006F
:100010000C9447000C9447000C9447000C94BD00CE
:100020000C9447000C9447000C9447000C94470034
:100030000C9447000C9447000C9447000C94470024
:100040000C9447000C9447000C9447000C94470014
:100050000C94470011241FBECFE5D8E0DEBFCDBF12
:1000600010E0A0E6B0E0E4E3F2E002C005900D92FB
:10007000A036B107D9F720E0A0E6B0E001C01D929C
:10008000A236B207E1F70E94E7000C9418010C9425
:1000900000001F920F920FB60F9211242F933F93DF
:1000A0008F939F938091600090916100813E9E426A
:1000B00094F1809160009091610088589341813E55
:1000C0009E42ECF0809160009091610088589341CD
:1000D0009093610080936000809160009091610036
:1000E0009BBD8ABD2AB53BB58CB59DB52817390790
:1000F000D8F18AB59BB501979DBD8CBD35C0809167
:1001000060009091610088589341909361008093C2
:100110006000DF9829C02AB53BB5809160009091BE
:10012000610028173907C9F480EE9EE290936100C0
:100130008093600080916000909161009BBD8ABDBA
:100140002AB53BB58CB59DB52817390760F08AB53F
:100150009BB501979DBD8CBD06C080EE9EE290933D
:10016000610080936000DF989F918F913F912F9164
:100170000F900FBE0F901F9018951F920F920FB601
:100180000F9211242F933F938F939F939BB381E002
:1001900089278BBB2AB53BB58091600090916100A7
:1001A0002817390729F480E197E29BBD8ABD06C074
:1001B00080916000909161009BBD8ABD9F918F915D
:1001C0003F912F910F900FBE0F901F9018958AB3FB
:1001D000816F8ABB8FEF84BB929A85BBDF9A85B70C
:1001E000826085BF8BB780648BBF80E29EE4909372
:1001F00061008093600080916000909161009BBDE0
:100200008ABD89B7806189BF8EB588608EBD8EB585
:1002100083608EBD78942FE38DE093E02150804081
:100220009040E1F700C0000085B3809585BBF3CF17
:04023000F894FFCF70
:00000001FF
