S00A00005A322E737265638E
S11300000C942A000C9434000C9434000C943400A6
S11300100C9434000C9434000C9434000C9434008C
S11300200C9434000C9434000C9436000C9434007A
S11300300C9434000C9434000C9434000C9434006C
S11300400C9434000C9434000C9434000C9434005C
S11300500C94340011241FBECFE5D8E0DEBFCDBF21
S11300600E9449000C9468000C9400001F920F92A7
S11300700FB60F9211248F931BBA80B38F708F30F9
S113008011F080B380B38F910F900FBE0F901F902B
S113009018958FEF8ABB84BB91B3906F91BB92B3D9
S11300A09F6092BB85BB83EC8CBF89B783B78564A3
S11300B083BF78942FEB84ED91E0215080409040F1
S11300C0E1F700C0000085B3809585BB0000F2CF46
S10700D0F894FFCFCE
S9030000FC
