:100000000C942A000C9436000C9434000C943400A8
:100010000C9434000C9434000C9434000C944B0079
:100020000C9434000C9434000C9434000C94340080
:100030000C9434000C9434000C9434000C94340070
:100040000C9434000C9434000C9434000C94340060
:100050000C94340011241FBECFE5D8E0DEBFCDBF25
:100060000E945B000C947B000C9400001F920F9286
:100070000FB60F9211248F93D89A8EB583608EBDE0
:100080008EB588608EBD1DBC1CBC8F910F900FBEBD
:100090000F901F9018951F920F920FB60F92112478
:1000A0008F93D8988EB5887F8EBD8F910F900FBE9D
:1000B0000F901F901895D09A8FEF84BB929A85BBB2
:1000C00085B7826085BF8BB780648BBF82E19AE77A
:1000D0009BBD8ABD89B7806189BF78942FEB84ED81
:1000E00091E0215080409040E1F700C0000085B3CE
:0A00F000809585BBF3CFF894FFCF95
:00000001FF
