:100000000C942A000C9436000C9486000C94340056
:100010000C9434000C9434000C9434000C94340090
:100020000C9434000C9434000C9434000C94340080
:100030000C9434000C9434000C9434000C94340070
:100040000C9434000C9434000C9434000C94340060
:100050000C94340011241FBECFE5D8E0DEBFCDBF25
:100060000E94D1000C94EF000C9400001F920F929C
:100070000FB60F9211242F933F934F935F936F937B
:100080007F938F939F93EF93FF93F89441E050E019
:1000900061E070E092B39A012D5F3F4FFB0102C017
:1000A000EE0FFF1F2A95E2F78E2F8095807F9F70BD
:1000B000892B82BB87EE93E00197F1F700C0000027
:1000C00082990CC08BB3282F2F70CA01829592950C
:1000D000907F9827807F9827822B8BBB4F5F5F4F45
:1000E00045305105B9F682B38F7082BB7894FF9189
:1000F000EF919F918F917F916F915F914F913F9180
:100100002F910F900FBE0F901F9018951F920F9276
:100110000FB60F9211242F933F934F935F936F93DA
:100120007F938F939F93F89444E050E061E070E0F8
:1001300092B39B01042E02C0220F331F0A94E2F7F0
:10014000822F8095807F9F70892B82BB87EE93E002
:100150000197F1F700C0000083990DC02BB3CA01CD
:10016000019682959295907F9827807F9827922F6D
:100170009F70892B8BBB4F5F5F4F48305105C1F695
:1001800082B38F7082BB78949F918F917F916F9192
:100190005F914F913F912F910F900FBE0F901F9045
:1001A00018958FEF8ABB84BBDB9A81B3806F81BBCC
:1001B00082B38C6082BB85B78A6085BF8BB7806C49
:1001C0008BBF789485B3809585BB2FEB84ED91E050
:1001D000215080409040E1F700C00000F3CFF89438
:0201E000FFCF4F
:00000001FF
